:400000000080002011000000790300007903000008B5044B1A6803F53F5302331A6000F0CBF900BFFA46004010B5054C237833B9044B13B10448AFF300800123237010BDBB
:400040009881FF1F00000000B04A0000084B10B51BB108490848AFF300800848036803B910BD074B002BFBD0BDE81040184700BF000000009C81FF1FB04A0000C880FF1F6E
:400080000000000010B592B062B600F0A5FA00F0B1FA0121002000F08DFC00F0C3FC0028FBD000F097FD002000F0ACFA00F0BCFA044600F0C5FA02F029F80D4902F02EF93F
:4000C00001F016FFCDE9000122460A4903A802F071FE00F0F3FD30B103A802F08FFE81B203A800F0C3FD4FF4FA7000F0E3FADAE700007A44B84A0000FEE700BFF0B400229E
:40010000174611E050F82760F3B226F0FF0608E001EB420511F812406D78A5550132013BDBB2002BF4D10137162FEBD9F0BC704708B50A46002102F0C4F908BDF8B5174B4C
:400140001B78DBB2164E3478E4B2164F3D78EDB203F00701144A11701B090132137044F00303337045F003033B704023A2F25272137002F2EC7213700232137004220B4B43
:400180001A70202203331A700A2000F0A9FA3D7034704422064B1A70F8BD00BFCF010049F8460040F94600406E580040285B00407658004008B502F079F908BD38B504220A
:4001C00031493248FFF7F6FF0622314B1A7045F20E52EE3B1A80023B05221A701B7843F2C82404E04FF4F07001F0DEFC013C24B1284B1B7813F0800FF4D15222264B1A70C6
:40020000264B1B78DBB2264A13704FF4E262254B1A8041F25122023B1A80002419250CE0214B1B7803F0010343EA440404F003044FF4F07001F0B8FC013D0DB1032CEFD145
:4002400015B90320FFF758FF184A4FF48073138007231370002316490B704820023108701370053213700222124B1A7004220A331A70114A137843F001031370013A1378BD
:4002800043F08003137038BDD0000048004100400043004010420040004200400F010049A14600402242004025420040044000400640004001400040A143004038B572B651
:4002C000214A137843F00403137000240CE01F4D630019194A0011462A44084691882858FFF726FF0134E4B2072CF0D918494FF09040FFF703FF174A137843F00203137053
:400300001032137843F0020313700A2212491348FFF750FF082212491248FFF74BFF124A137843F008031370104C61232370FFF745FFC1232370FFF701FF0E220C490D4853
:40034000FFF738FF38BD00BFE8460040DC4A00005C00004803500140BC000048F0510040C8000048125100402243004000480040A0430040B043004008B502F06BF8036898
:400380000C2B00D1FEE7FEE708B5094B1A681044084BC31A802B02DC054B186005E002F059F80C2303604FF0FF32104608BD00BFCC80FF1FA882FF1F08B5104E104D16E0DF
:4003C00029686B68AC68002204E051F8040B43F8040B0432A242F8D1E868002203E0002143F8041B04328242F9D11035013E002EE6D102F035F8FFF745FEFEE701000000BF
:40040000084E000008B5104A104B1A60104A136843F40073136000230AE0032B03D80D4A52F8231000E00C490C4A42F8231001332F2BF2D90A4B1A780A4B1A70074A0A4BE1
:400440001A60FFF73BFF08BD0004FA050CED00E014ED00E000000000790300000080FF1FBC760040C080FF1F08ED00E008B50A280FD00C2802D0082806D102E04FF48052BF
:4004800009E04FF4807206E0002000F011F9002201E04FF480620021094B198042F2107303FB02F303F6C413064A82FB0302DB17C3EBE223044A1360044B198008BD00BFCA
:4004C000C481FF1FAD8BDB68C881FF1FC681FF1F10B501F071FB04461E4A137843F0020313701032137843F0020313701A3A137843F0010313701032137843F00103137090
:4005000002F5AA521A32137843F0030313701822114B1A70013B1A7842F040021A701A7802F0FC021A70C822053B1A700222A3F59753123B1A70094A137843F0080313706D
:400540000A2000F0CDF80122054B1A60204601F037FB10BDAB4300400E5900402F5B004080E200E010B504460A280DD00C2802D0082804D101E0C22207E0422205E000203A
:4005800000F096F8C22200E08222034B1A702046FFF76CFF10BD00BF0A59004008B5102000F07CF80721002000F0B8F80749002000F0A0F8064A137843F0060313700C2090
:4005C000FFF7D0FF0022034B1A8008BD9906000009590040CC81FF1F08B5054B1B7823B9FFF7DCFF0122024B1A70FFF771FF08BDB481FF1F024A137843F0010313707047AE
:400600000859004010B5074B1B7813F0010401D10028F8D024B1012000F062F8014B1B78204610BD09590040034B188880B2034B1B88C01A00B27047A25B0040C681FF1FBB
:4006400010B4124B1B881BB233B1104B1B881BB203EB83035C0001E00D4B1C680D4B1988411A09B242F2107303FB01F2002903DD04EBD470401003E004EBD4704010404282
:40068000831893FBF4F000B210BC7047C481FF1FC881FF1FCC81FF1F704700BF034B1A7800F0F80010431870704700BF0241004001BE704710B5044605E0084B186801F083
:4006C00073FAA4F50044B4F5004FF6D8034B586800FB04F001F068FA10BD00BFD080FF1F08B5034B1B7A00FB03F001F05DFA08BDD080FF1F70B504460E46074B1D681F28B6
:4007000002D90020FFF7D4FF04F01F04103455F8240045F8246070BD08ED00E038B504460D46072902D90020FFF7C2FF1F2C02D90020FFF7BDFF04F01F0000F1604000F569
:4007400064406D01EDB2057038BD00BF134B1B78DBB20360124A127843EA02230360114A127843EA024303600F4A127843EA026303600E4B1B78DBB243600D4A127843EA67
:40078000022343600B4A127843EA024343600A4A127843EA02634360704700BF0301004904010049EC4600400201004901010049000100490501004906010049F8B501F0C9
:4007C000FBF90746404A137843F0010313701032137843F00103137001263C4B1E700225943B1D7002F5E2521B32137803F07F0313700020FFF774FF354C237803F0F90314
:400800002370344A137803F0DF0313702378334323703046FFF764FF2820FFF761FF2E4B1A7802F07F021A701A7802F0BF021A7023782B4323702846FFF752FF237843F0BD
:40084000040323700023254A137001321370384601F0B6F907211720FFF760FF20491720FFF748FF07211820FFF758FF1D491820FFF740FF07211520FFF750FF1A491520AA
:40088000FFF738FF07213046FFF748FF17493046FFF730FF07212846FFF740FF14492846FFF728FF07210320FFF738FF11490320FFF720FF07210C20FFF730FF0E490C207C
:4008C000FFF718FFF8BD00BFA54300409D6000409443004012600040F8510040846000403D120000251000003912000099110000C9110000FD1100004512000008B5214BBB
:4009000018700023204A1370204A1370204A1370204A1370204A1370204A1370204A1370204B4FF400021A604FF080721A604FF400121A6002221A6004221A6008221A600B
:4009400011B1012906D00BE0174A137803F0FE0313700AE0144A137843F00103137004E0114A137843F00103137003220F4B1A708022203B1A70012001F016F904220C4B28
:400980001A7008BD7B82FF1F7A82FF1FEC81FF1FED81FF1FEE81FF1F7E82FF1FEF81FF1FEB81FF1F00E100E009600040286000401260004038B504460D46064B1B7823B9AB
:4009C000FFF7FCFE0122034B1A7029462046FFF795FF38BDB581FF1F00230A4A13700A4A13700A4A13700A4A13700A4A13700A4A13700A4A13700322094B1A708022203B60
:400A00001A7070477A82FF1FEC81FF1FED81FF1FEE81FF1F7E82FF1FEF81FF1FEB81FF1F28600040014B1878704700BFED81FF1F00EB40008300024A13445878704700BF44
:400A40000C82FF1F431EDBB2072B3CD8F0B4074600EB4004A3001C4C2344DB889BB2C3F500739A4208D900EB400293002344DA8892B2C2F5007292B200EB4004A300124C02
:400A80002344DB7843EA1223104D04012E192B55D3B2737039B909E0CE5C3D010C4C665501339BB200E000239A42F5D8420002449300054A134400225A705A79D2B2000101
:400AC000044B1A54F0BC70470C82FF1FFC5F004078600040FE5F0040431EDBB2072B0BD8420002449300054A134400225A705A79D2B20001024B1A54704700BF0C82FF1FF5
:400B0000FE5F004010B4FF2400230EE0094AD25C02EB42029100084A11448A7AD2B2824201D11C4602230133DBB2012BEED9204610BC7047D881FF1F0C82FF1F10B5204CA0
:400B40002079FFF7DFFF237813F0800F0ED06378DBB2212B2FD11B4B07221A80C0EBC000194A1044586000F0CBFA10BD144B5B78DBB2202B02D0222B10D01EE0114A072338
:400B80001380C0EBC00310490B4453600F4A135C43F00103135400F0DBFA10BD084B9B780B4A22F81030094A135C43F00203135400F064F910BD002010BD002010BD00BFB8
:400BC00000600040FC81FF1FE080FF1FE081FF1FE481FF1F10B500241F4B1C701F4B1C705C700AE01E4B185DC0B2431EDBB2072B01D8FFF771FF0134E4B2012CF2D9194BD9
:400C00001B7813F0FF0F1AD0154B1B7813F0FF0F17D0154B1B7813F0FF0F14D0114B1B78DBB2082B11D80E4B1B78DBB2082B0ED80D4B1B78DBB2082B0BD8002010BD01208D
:400C400010BD012010BD012010BD012010BD012010BD012010BD00BFB681FF1FE081FF1FD481FF1FD081FF1FD881FF1F70B506460D460F4B1B780F4AD45CE4B204EB440210
:400C800093000D4A13441B899BB28B4209D204EB44029300084A13441D89ADB20020FFF707FD2A4631462046FFF7CCFE70BD00BFB681FF1FD081FF1F0C82FF1F08B5034B56
:400CC0001B78034AD05CFFF7B3FE08BDB681FF1FD081FF1FC37803F0030390F9020000280FDA032B06D002F001030B48C15442F001020EE0C2F380030848C15442F004028E
:400D000007E0032B05D0C2F340030548C15442F002021046704700BFD081FF1FD881FF1FD481FF1F1D4B19781D4A13889BB20B449BB2138000220FE01A494B681B78DBB256
:400D4000194883544B6801334B600132D2B20B889BB2013B9BB20B80124B1B889BB20BB1072AE9D90D4B1B78DBB2082B00D05AB10E490B7883F080030B700F210C4B197021
:400D800002210C4B197004E0022309490B7009490B70094B1A70014B1A707047EB81FF1F7882FF1FFC81FF1F00600040F081FF1FEA81FF1F7A82FF1F0882FF1F0222074BF5
:400DC0001A708022064B1A700F22064B1A700023054A1370054A1370012070477A82FF1FF081FF1FEA81FF1FEB81FF1F0882FF1F08B5FFF797FF08BD10B4194B197801F025
:400E00000F010239C9B2174A13889BB20B449BB21380002011E0144A5468144B1B5CDBB223705368013353600130C0B20139C9B213889BB2013B9BB213800B4B1B889BB20F
:400E40000BB10029E7D10A4B19700A4A137883F0800313700B22084B1A7010BC704700BF296000407882FF1FFC81FF1F006000400882FF1FF081FF1FEA81FF1F0623064AFE
:400E80001370064A13708022054B1A700022054B1A700120704700BF7A82FF1FEA81FF1FF081FF1F0882FF1F064B9B6843B1054B9A6810709A6804490988518000229A600C
:400EC000704700BFFC81FF1F7882FF1F08B5134B1A78D2B21A701B78DBB213F0800F02D00F4A137008BD0220FFF7DEFF0D4B1B7803F06003202B05D0402B06D043B900F066
:400F000093FC06E000F060FE03E000F037FE00E0002010B90322024B1A7008BD28600040EA81FF1F0060004008B5094B1978094A13889BB20B449BB213800022064B1A7062
:400F40000120FFF7B1FF0322044B1A7008BD00BFEB81FF1F7882FF1F7A82FF1FEA81FF1F08B50B4B1B78DBB2042B06D0062B07D0022B0BD1FFF7D8FF08BDFFF73DFF08BD11
:400F80000320FFF791FF0322024B1A7008BD00BF7A82FF1FEA81FF1F08B50022044B1A700120FFF781FF0322024B1A7008BD00BF7A82FF1FEA81FF1F08B50B4B1B7813F04A
:400FC000FF0F07D0084A137843F0800307490B70002313700022064B1A700120FFF764FF0322044B1A7008BD7E82FF1F086000407A82FF1FEA81FF1F08B5094B1B78DBB234
:40100000042B06D0062B07D0022B07D1FFF7F0FE08BDFFF7C1FF08BDFFF7CEFF08BD00BF7A82FF1F08B5284B1B78DBB213F0100F48D013F0800F0CD003F00F03012B16D109
:40104000FFF744FF214B1B7813F0800F11D1012312E013F0400F03D0FFF7CEFF01230BE013F0200F07D0FFF77BFF012304E0002302E0002300E0002323B3134B1B7813F041
:40108000800F1FD1124B1B78124A12781343124A13701278D2B2934214D10C4B1B78DBB2094A127812F0800F07D1084B1B78DBB2054A1370137803F00F03044A1278D2B2F0
:4010C0009342EAD108BD00BF28600040EA81FF1FF081FF1F0882FF1F296000400022064B1A80064B9B682BB1044A916800230B7092685380704700BF7882FF1FFC81FF1F73
:4011000008B50F4B1B889BB213B9FFF757FE15E002220C4B1A7000220B4B1A70FFF7DEFF0A4AD179937943EA0123054A128892B2934201D2024A1380FFF7F4FD012008BD46
:40114000FC81FF1F7A82FF1FF081FF1F0060004008B504220B4B1A7080220B4B1A70FFF7BDFF0A4AD179937943EA0123084A128892B2934201D2064A13800B22054B1A70D7
:40118000012008BD7A82FF1FF081FF1F00600040FC81FF1FEA81FF1F0122094B1A700F3B9B7C084B1B7B03F00303934204D0054AD37B83F08003D3730122024B5A73704722
:4011C0000B6000400C82FF1F02220A4B1A700F3B93F82230084B1B7E03F00303012B04D0054AD37E83F08003D3760122024B5A76704700BF0B6000400C82FF1F04220C4B20
:401200001A700F3B93F832300A4B93F8243003F00303012B06D0074A92F8273083F0800382F827300122034B83F82520704700BF0B6000400C82FF1F704700BF08B5FFF79E
:40124000CBFB08BD08B500F0A5FC08BD70B588B0054603AC174E0FCE0FC43368237035B322232B7003236B7001A8FFF76FFA002402231AE008AA224412F81C2C08A901EB1B
:40128000121111F8141CE954581C00212954981C02F00F0208AE324412F8142C2A54DA1CA9540134E4B20433DBB2212BE2D908B070BD00BF0C4B000010B401233EE01946EF
:4012C0001A010C242148845403EB4300820020480244527912F0FF0F13D003EB430082001B480244127912F0800F04D01801194A024494700AE01801164A02440820907060
:4013000004E01801134A0244802090704800084482000F480244D488E4B208010B4901448C71D088C0F30720C871D088C0B20871D288C2F307224A710133DBB2082BBED9FD
:40134000FF22054B1A7010BC704700BF706000400C82FF1FFC5F00400A600040074B1A78074B03EBC2035B681A7C824204D9C0001030184440687047002070477B82FF1F9F
:40138000204B0000F8B5404B1B7813F0FF0F79D03D4B18780138C0B2FFF7E0FF047AC2683A4B1878C0B200236AE01178884264D13749095CC9B25578A9425ED1917801F0A0
:4013C0007F01D67806F00306DFF8C8E04D000D44AF000EEB07054FF0000C85F803C092F802C085F804C092F803C00EF807C097882F8192F90250002D0DDA012E01D107272E
:4014000000E00D274E000E44B500224E35446F7101266E700CE0012E01D1052700E009274E000E44B5001B4E35446F7100266E70DFF868E00F010EEB07060125B57001FAB6
:4014400005F529448D00134929440D89C5F307250EF807500D89EDB27570CE88F6B20E4D3D44AE71CE88C6F30726EE71CE88F6B22E71C988C1F30721697108320133DBB28B
:40148000A34292D3F8BD00BFED81FF1FEE81FF1FF881FF1F0C82FF1F70600040FC5F0040034B1A78034B03EBC2035868704700BF7B82FF1F204B000008B5084B18780138F1
:4014C000C0B2FFF74BFF30B142681279023200EBC203586808BD002008BD00BFED81FF1F2DE9F047002310E0724D5900CA189600AC190022AA55A270E2702281A2726270C8
:4015000034462C4462710133DBB2082BECD940B90AE000226849CA546849CA540133DBB200E00023012BF4D9654B1B7813F0FF0F00F0BD80624B18780138C0B2FFF70EFF69
:4015400080464368DB7913F0400F05D05D4A137843F00103137004E05A4A137803F0FE03137098F808704FF0000A01266FE0D8F80C50002467E0AB7803F07F039E425FD103
:40158000314606EB460083004A4803441B899BB2A888834206D206EB460E4FEA8E03454A134418812B784448C35CDBB26878834246D195F802C0DFF8FCE04B000B4498000A
:4015C0000EEB000383F804C0EB780EF80030EB7803F0030395F90200002813DA012B02D14FF0070901E04FF00D09DFF8C8E04B0003EB010C4FEA8C00704480F80590012125
:40160000417012E0012B02D14FF0050901E04FF00909DFF8A0E04B0003EB010C4FEA8C00704480F8059000214170AB790A2B01D0022B05D1524631462846FFF74BFB8246E6
:4016400008350134E4B2BC4295D30136F6B2082E8DD9D8F80C0000220CE0837803F07F0310F8084B03EB43039900124B19448C720132D2B2BA42F0D3FFF71EFF124B1860E9
:40168000002301210FE00B4D4A00501884002C44E380228992B213449BB203F0010213449BB20131C9B20829EDD9FFF705FEBDE8F08700BF0C82FF1FF881FF1FE881FF1F26
:4016C000ED81FF1FEF81FF1FF481FF1F08B5154B1B7903F07F035A1ED2B2072A20D8590019448A0010490A44917841F0010191700021D170517841F002015170127912F021
:40170000800F05D01B01094A1A448D23937004E01B01064A1A4489239370FFF7AFFB08BD002008BD006000400C82FF1FFC5F0040274B1B7903F07F035A1ED2B2072A44D873
:4017400010B5590019448A0022490A44917801F0FE0191700021D1701F4C1801215C01F07F012154517801F0FD015170127912F0800F13D003EB43018A0016490A445278BD
:40178000D2B2012A04D1224602440C23937019E01B01114A1A440D23937013E003EB43018A000C490A445278D2B2012A05D11B01094A1A440823937004E01B01064A1A447A
:4017C00009239370FFF75AFB10BD0020704700BF006000400C82FF1FFC5F004010B50E4B1C79E4B20D4B18780138C0B2FFF7B6FD43681B799C4201D9022C0AD8084A135DD7
:40180000DBB208490B55044B9B78DBB21355012010BD002010BD00BF00600040ED81FF1FF881FF1FE881FF1F10B59C4B1B78DBB200219B4A118013F0800F00F0AD80974A3C
:401840005278D2B20A2A00F27481DFE812F06900720172017201720172010B007201920072019A008D4BDB78DBB2012B09D1FFF717FE42688A4B5A6012221A80FFF740FC6F
:4018800010BD864BDB78DBB2022B13D1834B9878FFF764FD002800F04E814268804B5A605A68D1785A68927842EA01221A80FFF727FC10BD794BDB78DBB2032B05D02CE0F5
:4018C0000A7811440133DBB201E000237549734A9278D2B2934203D20A7812F0FF0FEFD16E4B9B7813F0FF0F0BD06C4B9B78DBB26D4A127C934204D16C4C2046FFF7A6FC93
:4019000021460B7813F0FF0F00F017810B78644A13805160FFF7F4FB10BD00F055F910BD13F0030317D0022B40F009815C490B805A4B1B7903F07F0303EB43039A005C4BC8
:401940001A449278D2B25B4B1A7000225A704B60FFF7D6FB10BD524902230B80564B1A78D2B2544B1A7000225A704B60FFF7C8FB10BD4B4B01221A80504A5A60FFF7C0FB80
:4019800010BD474A01231380444B1B794C490B445360FFF7B5FB10BD404A5278013A0A2A00F2CF80DFE812F04C00CD009800CD000B00CD00CD00CD001300CD003000374B96
:4019C0009B78DBB23F4A1370FFF758FA10BD334B9B7803F0FF041BB1601EC0B2FFF7BEFC04B110B9002C40F0AE80344B1B78DBB29C4206D0314B1C700120334B1870FFF7B3
:401A00006FFDFFF73BFA10BDFFF7E8FE002800F09C80224A1379DBB21279D2B22B490A702B4AD25CD2B22649CB5CDBB29A4204D00122254B1A70FFF7A5FCFFF71FFA10BD26
:401A400003F00303012B17D04BB1022B7FD1134B9B7813F0FF0F7CD1FFF76AFE10BD0F4B9B78DBB2012B76D1134A137803F0FD031370FFF703FA10BD084B1B79DBB2012BBC
:401A80006BD8064B98781B79DBB21249CA5C22EA0002CA54FFF7F2F910BD00BF00600040FC81FF1F884B00006C4C00008082FF1F0C82FF1FB881FF1FEF81FF1FED81FF1F44
:401AC000F881FF1F7E82FF1FEC81FF1FEE81FF1FE881FF1F7C82FF1F03F00303012B17D04BB1022B3BD1224B9B7813F0FF0F38D1FFF7ECFD10BD1E4B9B78DBB2012B32D1B7
:401B00001C4A137843F002031370FFF7B7F910BD174B1B79DBB2012B27D8154B98781B79DBB21549CA5C22EA0002CA54FFF7A6F910BD002010BD002010BD002010BD00204E
:401B400010BD002010BD002010BD002010BD002010BD002010BD002010BD002010BD002010BD002010BD002010BD002010BD00BF00600040EF81FF1F7C82FF1F044B1B787E
:401B800013F0800F01D0024B5B780020704700BF00600040024B1878C0F38010704700BF8F450040000000000230800803D000BF01380046FCD17047EFF3108072B6704722
:401BC00080F31088704700BF08B5144B1B7803F00303012B02D0022B04D00FE00F4B1B79DBB20CE00D4B1B7903F07F0303EB43039A000B4B1A44937ADBB200E00023022BBA
:401C000007D8084A1268D35C022B04D1FEF796FF08BD002008BD002008BD00BF006000400C82FF1FF481FF1F81F0004102E000BF83F0004330B54FEA41044FEA430594EAA6
:401C4000050F08BF90EA020F1FBF54EA000C55EA020C7FEA645C7FEA655C00F0E2804FEA5454D4EB5555B8BF6D420CDD2C4480EA020281EA030382EA000083EA010180EAF7
:401C8000020281EA0303362D88BF30BD11F0004F4FEA01314FF4801C4CEA113102D0404261EB410113F0004F4FEA03334CEA133302D0524263EB430394EA050F00F0A78044
:401CC000A4F10104D5F1200E0DDB02FA0EFC22FA05F2801841F1000103FA0EF2801843FA05F359410EE0A5F120050EF1200E012A03FA0EFC28BF4CF0020C43FA05F3C018E0
:401D000051EBE37101F0004507D54FF0000EDCF1000C7EEB00006EEB0101B1F5801F1BD3B1F5001F0CD349085FEA30004FEA3C0C04F101044FEA445212F5800F80F09A800C
:401D4000BCF1004F08BF5FEA500C50F1000041EB045141EA050130BD5FEA4C0C404141EB010111F4801FA4F10104E9D191F0000F04BF01460020B1FA81F308BF2033A3F14C
:401D80000B03B3F120020CDA0C3208DD02F1140CC2F10C0201FA0CF021FA02F10CE002F11402D8BFC2F1200C01FA02F120FA0CFCDCBF41EA0C019040E41AA2BF01EB0451AF
:401DC000294330BD6FEA04041F3C1CDA0C340EDC04F11404C4F1200220FA04F001FA02F340EA030021FA04F345EA030130BDC4F10C04C4F1200220FA02F001FA04F340EAA9
:401E00000300294630BD21FA04F0294630BD94F0000F83F4801306BF81F480110134013D4EE77FEA645C18BF7FEA655C29D094EA050F08BF90EA020F05D054EA000C04BFDF
:401E40001946104630BD91EA030F1EBF0021002030BD5FEA545C05D14000494128BF41F0004130BD14F580043CBF01F5801130BD01F0004545F0FE4141F470014FF00000BE
:401E800030BD7FEA645C1ABF194610467FEA655C1CBF0B46024650EA013406BF52EA033591EA030F41F4002130BD00BF90F0000F04BF0021704730B54FF4806404F1320448
:401EC0004FF000054FF0000150E700BF90F0000F04BF0021704730B54FF4806404F1320410F0004548BF40424FF000013EE700BF42004FEAE2014FEA31014FEA02701FBFC3
:401F000012F07F4393F07F4F81F06051704792F0000F14BF93F07F4F704730B54FF4607401F0004521F0004120E700BF50EA010208BF704730B54FF000050AE050EA0102F2
:401F400008BF704730B511F0004502D5404261EB41014FF4806404F132045FEA915C3FF4DCAE4FF003025FEADC0C18BF03325FEADC0C18BF033202EBDC02C2F1200300FA33
:401F800003FC20FA02F001FA03FE40EA0E0021FA02F11444C1E600BF80F0004002E000BF81F0004142001FBF5FEA410392EA030F7FEA226C7FEA236C6AD04FEA1262D2EB45
:401FC0001363C1BFD218414048404140B8BF5B42192B88BF704710F0004F40F4000020F07F4018BF404211F0004F41F4000121F07F4118BF494292EA030F3FD0A2F101028A
:4020000041FA03FC10EB0C00C3F1200301FA03F100F0004302D5494260EB4000B0F5000F13D3B0F1807F06D340084FEA310102F10102FE2A51D2B1F1004F40EBC25008BF7D
:4020400020F0010040EA03007047490040EB000010F4000FA2F10102EDD1B0FA80FCACF1080CB2EB0C0200FA0CF0AABF00EBC25052421843BCBFD0401843704792F0000F95
:4020800081F4000106BF80F400000132013BB5E74FEA41037FEA226C18BF7FEA236C21D092EA030F04D092F0000F08BF0846704790EA010F1CBF0020704712F07F4F04D192
:4020C000400028BF40F00040704712F100723CBF00F50000704700F0004343F0FE4040F4000070477FEA226216BF08467FEA23630146420206BF5FEA412390EA010F40F42D
:40210000800070474FF0000304E000BF10F0004348BF40425FEA000C08BF704743F0964301464FF000001CE050EA010208BF70474FF000030AE000BF50EA010208BF7047F5
:4021400011F0004302D5404261EB41015FEA010C02BF84460146002043F0B64308BFA3F18053A3F50003BCFA8CF2083AA3EBC25310DB01FA02FC634400FA02FCC2F1200286
:40218000BCF1004F20FA02F243EB020008BF20F00100704702F1200201FA02FCC2F1200250EA4C0021FA02F243EB020008BF20EADC7070474FF0FF0C1CEAD0521EBF1CEA85
:4021C000D15392EA0C0F93EA0C0F6FD01A4480EA010C400218BF5FEA41211ED04FF0006343EA501043EA5111A0FB01310CF00040B1F5000F3EBF490041EAD3715B0040EA10
:40220000010062F17F02FD2A1DD8B3F1004F40EBC25008BF20F00100704790F0000F0CF0004C08BF49024CEA502040EA51207F3AC2BFD2F1FF0340EAC250704740F400009E
:402240004FF00003013A5DDC12F1190FDCBF00F000407047C2F10002410021FA02F1C2F1200200FA02FC5FEA310040F1000053EA4C0308BF20EADC70704792F0000F00F09E
:40228000004C02BF400010F4000F013AF9D040EA0C0093F0000F01F0004C02BF490011F4000F013BF9D041EA0C018FE70CEAD15392EA0C0F18BF93EA0C0F0AD030F0004C7E
:4022C00018BF31F0004CD8D180EA010000F00040704790F0000F17BF90F0004F084691F0000F91F0004F14D092EA0C0F01D142020FD193EA0C0F03D14B0218BF084608D195
:4023000080EA010000F0004040F0FE4040F40000704740F0FE4040F4400070474FF0FF0C1CEAD0521EBF1CEAD15392EA0C0F93EA0C0F69D0A2EB030280EA010C49024FEAA2
:40234000402037D04FF0805343EA111143EA10130CF000408B4238BF5B0042F17D024FF4000C8B4224BF5B1A40EA0C00B3EB510F24BFA3EB510340EA5C00B3EB910F24BF24
:40238000A3EB910340EA9C00B3EBD10F24BFA3EBD10340EADC001B0118BF5FEA1C1CE0D1FD2A3FF650AF8B4240EBC25008BF20F0010070470CF0004C4CEA50207F32C2BF33
:4023C000D2F1FF0340EAC250704740F400004FF00003013A37E792F0000F00F0004C02BF400010F4000F013AF9D040EA0C0093F0000F01F0004C02BF490011F4000F013B12
:40240000F9D041EA0C0195E70CEAD15392EA0C0F08D142027FF47DAF93EA0C0F7FF470AF084676E793EA0C0F04D14B023FF44CAF08466EE730F0004C18BF31F0004CCAD107
:4024400030F000427FF45CAF31F000437FF43CAF5FE700BF014B1868704700BF5C81FF1F0E4B70B51E460E4C0025E41AA410A54204D056F8253098470135F8E702F0B2FC73
:40248000084B094C1E46E41AA4100025A54204D056F8253098470135F8E770BDF04D0000F04D0000F04D0000F84D000010B5431E0A44914204D011F8014B03F8014FF8E724
:4024C00010BD03460244934202D003F8011BFAE770472DE9F04788B0149F002B1E461299B8BF03F1004327F02007B6BF1E4600232D23462F1446109DDDF84CA00B7003D0F5
:40250000452F03D1013501E0032300E0022307AA049206AA03928DE828042246334600F003FD472F804602D1119BDB0728D5462F08EB050911D198F80030302B0AD1002209
:4025400000232046314602F043FA18B9C5F10105CAF80050DAF800309944002200232046314602F035FA08B9302202E0CDF81C9006E0079B994503D9591C07911A70F8E74D
:402580004046079B159AC8EB0303136008B0BDE8F087034673B50029B8BF494203F8022BB4BF2D222B22092942701ADD0DF1070216460A2591FBF5F405FB1411092C01F143
:4025C000300102F8011D2146F4DC3031541E02F8011CB4421A460AD214F8012B03F8012BF7E71A463024214402F8024B5970101A02B070BD2DE9F04F91B00C46DDF868802B
:4026000016461F46054601F027FA03681846099300F0F4FB00230E93D8F800300A90073323F0070303F1080294F81890D4F800B0C8F80020D3E90023C4E91223D4F84CA07C
:40264000D4F848802AF000430B934FF0FF32A74B40460B9902F0EEF9A0B94FF0FF32A34B40460B9902F0C8F960B9002200234046514602F0B7F910B12D2384F843309C4BCE
:402680009C4A0AE0424653464046514602F0D2F9002800F09281984B984AB9F1470F8CBF90469846032323612BF0040323604FF0000A3DE0B9F1670F00F08A81B9F1470F90
:4026C00000F0868123600193636800210DF13302059002920093424653460691CDF81090CDF80CE02846FFF7F4FE09F0DF03472B804600F08481B9F1650F0D9900F28D8101
:4027000001394A4604F150000D91FFF742FF0E9A82468318012A236100F37C812268D10700F178819DF8333013B12D2384F84330009733460FAA2146284600F09FF901306D
:4027400002D14FF0FF3096E123685A0501D4236965E0B9F1650F40F2D580D4E912010022002302F035F978B30123654A31462846B8470130E5D00E9B0D9A9A420BDB2368D2
:40278000D80708D423689B0740F111814FF0000804F1190906E10A9B099A31462846B8470130CED04FF0000804F11A090E9B013B9845E7DA01234A4631462846B847013083
:4027C000BFD008F10108F1E70D9B002B29DC01234B4A31462846B8470130B2D00D9B23B90E9B13B92368D907CCD50A9B099A31462846B8470130A4D04FF0000904F11A0A11
:402800000D9B5B42994509DA0123524631462846B847013095D009F10109F1E70E9B4246A7E00E9AA36D9A42A8BF1A46002A914606DC4FF0000A29EAE97904F11A0B11E0C1
:402840001346314642462846B8470130F1D178E701235A4631462846B84701303FF471AF0AF1010AA36DC9EB03029245F0DB08EB03090D9A0E9B9A420FDB2368DA070CD443
:402880000E9B0D9A9844C9EB08089B1A9845A8BF9846B8F1000F08DC0FE00A9B099A31462846B8470130EBD14BE743464A4631462846B84701303FF444AF4FF0000928EACD
:4028C000E87804F11A0A09E00123524631462846B84701303FF435AF09F101090D9A0E9B9B1AC8EB03039945EEDB4BE7FFFFEF7F804C0000844C0000884C00008C4C00003F
:40290000904C00000E9A012A01DCDB0738D50123424631462846B84701303FF412AF0A9B099A31462846B84701303FF40AAFD4E912010022002302F04BF820B14FF00008BC
:4029400004F11A090EE00E9B08F10102013B19E001234A4631462846B84701303FF4F1AE08F101080E9B013B9845F1DB534604F1500231462846B84701307FF403AFE0E66C
:402980004246012331462846B8470130EED1D8E601234A4631462846B84701303FF4D1AE08F10108E3680F9A9B1A9845F0DBE0680F9B9842B8BF18465DE062680EA8531C3E
:4029C0000DF1340E4BF480637FF474AE062201E012B90122626075E6002106910DF133018DE80C00236005904246CDF81090CDF80CE0029153462846FFF76BFD80460D9B45
:402A0000D81C02DB626893421DDDA9F102095FFA89F970E60133236184E6B9F1660F14D10029636807DD216113B92268D2071DD501330B4419E013B92268D00701D5023301
:402A400013E0012311E04FF067090D9B0E9A934205DB22682361D10708D5013305E0002BD4BFC3F102030123134423610D9B4FF0000AA36556E611B0BDE8F08F2DE9F047E1
:402A800091461F460A698B6806469342B8BF1346C9F8003091F843200C46DDF8208012B10133C9F800302368990642BFD9F800300233C9F80030256815F0060510D104F132
:402AC000190A07E00123524639463046C04701301AD00135E368D9F800209B1A9D42F1DB94F843302268003318BF012392060FD5E118302081F843005A1C94F84510224432
:402B0000023382F8431003E04FF0FF30BDE8F08704F1430239463046C0470130F4D02268D9F80050E36802F00602042A08BF5D1B2269A3680CBF25EAE57500259342C4BF57
:402B40009B1AED184FF000091A344D4509D00123224639463046C0470130D5D009F10109F3E70020BDE8F0872DE9F04317460A7E85B06E2A984606460C460C9B01F1430EC1
:402B800000F0AE8011D8632A22D009D8002A00F0BB80582A40F0CA8081F84520834955E0642A1ED0692A1CD0C0E0732A00F0B08009D86F2A2ED0702A40F0B8800A6842F008
:402BC00020020A603EE0752A24D0782A3AD0ADE01A6801F14205111D1960136884F84230A8E021681A6811F0800F02D0111D196008E011F0400F02F10401196002D0B2F9D2
:402C0000003000E01368002B3CDA2D225B4284F8432037E021681A6811F0800F02D0111D196007E011F0400F02F10401196001D0138800E01368227E5C496F2A14BF0A2286
:402C400008221BE078225A4984F845202268186812F0800F00F104051D6003D1550601D5038800E00368D00744BF42F0200222601BB9226822F0200222601022002084F892
:402C8000430001E049490A226568002DA56008DB206820F0040020602BB9002D7DD175460CE0002B79D07546B3FBF2F002FB1033CB5C05F8013D03460028F5D1082A0BD188
:402CC0002368DA0708D5236962689A42DEBF302305F8013C05F1FF35C5EB0E0323612EE008681A6810F0800F496903D0101D1860136808E010F0400F02F10400186013686B
:402D000001D0198000E0196000232361754616E01A68111D1960156800216268284600F0A7FE08B1401B6060636804E004F1420584F8422001232361002384F84330CDF8C8
:402D400000803B4603AA21463046FFF797FE013002D14FF0FF3026E023692A4639463046C0470130F5D023689B0710D5002504F1190907E001234A4639463046C0470130C1
:402D8000E7D00135E368039A9B1A9D42F2DBE068039B9842B8BF184605E00B7804F1420584F842308AE705B0BDE8F083924C0000A34C00000EB400B54FF402719CB0ADF88D
:402DC00014106FF00041049107914FF6FF711DAB02900690084853F8042BADF81610006802A9019301F03AFA029B00221A701CB05DF804EB03B070475C81FF1F034613F8CA
:402E0000012B002AFBD1181A013870472DE9F74F03690C6980469C427FDC013C01F114074FEA840E00F1140606EB0E0357F82450019356F824300135B3FBF5F507EB0E0920
:402E4000C5B34FF0000A3846B446D34650F8043B9AB205FB02A21B0C4FEA124A05FB03A392B2C2EB0B0BBCF800204FEA134A5A441FFA83FBDCF800308145CBEB134303EBBD
:402E8000224392B242EA03424FEA234B4CF8042BDCD256F80E306BB9019B043B9E421A4602D3C8F8104005E01268043B002AF8D1013CF3E7404600F0F6FF00282BDB3046C9
:402EC00001354FF0000E57F8042B036891B2C1EB0E0E120C99B27144C2EB134303EB214389B24FEA234EB94541EA034340F8043BE9D256F8242006EB840362B9043B9E421E
:402F00001A4602D3C8F8104005E01268043B002AF8D1013CF3E7284600E0002003B0BDE8F08F0000000000002DE9F04F456A95B08246219CCDE9022345B9102000F090FD0B
:402F4000CAF82400456085600560C560DAF82430196859B15A68012393404A608B60504600F0C9FDDAF8243000221A60039BA04A002BBDBF01232360039B0023BCBF23F025
:402F800000430393DDF80C80A8BF236028F000431B0D1B0593421DD142F20F73209A1360029B43B9934A944BC8F31300002814BF1846104600E09048229B002B00F0468577
:402FC000C37813B100F1080300E0C31C229A136000F03CBDDDE90245002200232046294601F0F6FC074658B1209A01231360229B002B00F01E8581481860013800F026BD86
:4030000012AB019313AB009322462B46504600F0C5FFC8F30A56049056B1C5F3130343F07F51204641F44011A6F2FF3611971DE0139B129E1E4406F23243202B0ADD029AEB
:4030400006F21240C3F1400322FA00F008FA03F3184304E0C3F12000029B03FA00F0FEF725FF0123A1F1F871013E11930022644BFEF7DEFD58A3D3E9002301F041FA58A3B1
:40308000D3E90023FEF7D6FD044630460D46FEF71DFF55A3D3E9002301F032FA02460B4620462946FEF7C6FD04460D4601F0D8FC0022834600232046294601F093FC58B15D
:4030C0005846FEF703FF02460B462046294601F07FFC08B90BF1FF3BBBF1160F0DD8DDE90223484901EBCB01D1E9000101F098FC30B10BF1FF3B002300E00123109300E07F
:403100001090129B9E1B731E079343BFC3F10008002307934FF00008BBF1000F06DB079BCDF82CB05B440793002705E00023CBEB0808CBF100070B931E9B092B28D8052B11
:40314000C4BF043B1E931E9BC8BF0025A3F10203D8BF0125032B20D8DFE803F0060E0204012302E0012308E000230A931F9B002B1DDD9946059321E000230A931F9B0BEB8E
:40318000030909F10103012B0593B8BF012315E0012500231E930A9501E001230A934FF0FF390022CDF8149012231F9206E04FF001094B46CDF81490CDF87C90DAF824405E
:4031C00000226260042101F114029A421CD86268490001326260F6E761436F63A787D23FB3C8608B288AC63FFB799F501344D33F0000F07FB44C0000BD4C0000914C000016
:403200000000F83FD04C00006168504600F03EFCDAF8243020601B680693059B0E2B00F25B81002D00F05881DDE90234BBF1000FCDE90E3430DD9F4A0BF00F034FEA2B1528
:4032400002EBC303E80618CBCDE908340CD5DDE90E01994B05F00F05D3E9082301F07AFA0324CDE9020100E00224934E6DB1E90708D5DDE90801D6E9002301F041F9CDE9A5
:40328000080101346D100836F0E7DDE90823DDE9020101F05FFA20E0CBF1000505B3DDE90E01844B05F00F0203EBC203D3E9002301F026F9CDE902017F4E2D110023022468
:4032C00055B1EA0705D5D6E9002301F019F9013401236D100836F3E71BB1CDE9020100E00224109BE3B1DDE902560022734B2846314601F077FB98B1059B8BB1B9F1000F3C
:4033000040F3E6800BF1FF330893314600226C4B284601F0F5F80134CDE902014E4602E0059ECDF820B02046FEF7D0FDDDE9022301F0E6F8634B0022FEF77CFCA1F150737F
:4033400004460C931D46D6B9DDE9020100225E4BFEF76EFC22460C9BCDE9020101F060FB002840F03F820C99224601F10043DDE9020101F037FB002840F02B82A8E00A9AF3
:403380004C4B711E002A49D003EBC103D3E9002300204E4901F0DEF922462B46FEF748FCCDE90C01069CDDE9020101F059FB0546FEF78CFD02460B46DDE90201FEF738FCBB
:4033C000DDE90C23303504F8015BCDE9020101F009FB002840F01D83DDE9022300203749FEF726FCDDE90C2301F0FCFA002840F0D180069BE31AB3426ADADDE90C01002282
:403400002F4B01F07DF80022CDE90C01DDE902012B4B01F075F8CDE90201C4E703EBC1012246D1E900012B4601F06AF8069BCDE90C011D469C19DDE9020101F011FB0646A1
:40344000FEF744FD02460B46DDE90201FEF7F0FB303605F8016BAC42CDE902014FF0000222D11A4BDDE90C01FEF7E4FB02460B46DDE9020101F0D4FA002840F08B80DDE9D4
:403480000C2300201149FEF7D3FB02460B46DDE9020101F0A7FAD8B114F8013C621E302B40F0B7821446F7E7054B01F029F8CDE90201C0E7D04C0000A84D00000000F03F5C
:4034C0000000244000001C40000014400000E03FDDE90E34CDE90234139B002B7CDBBBF10E0F79DCAB4B03EBCB03D3E900671F9B002B14DA059B002B11DC40F06C810022B8
:40350000A54B3046394600F0FBFFDDE9022301F07DFA059D2E46002840F05F8165E1069CDDE9028932463B464046494601F012F901F096FA0546FEF7C9FC32463B4600F069
:40354000DFFF0B46024649464046FEF771FB05F1300E069B04F801EBC3EB040E059B73452DD102460B46FEF765FB8046894602460B463046394601F035FA78B942464B4610
:403580003046394601F024FA002800F04482EB0704D440E2DDF820B000E01C4614F8012C631E392A07D1069A9A42F6D1069930220BF1010B0A701A7801321A702BE200222D
:4035C000764B00F09DFF002200238046894601F0FFF90028A6D01EE20A9A002A2BD01E9A012A0ADC119A12B103F2334302E0129BC3F136033D46444613E0059B5D1EAF422A
:40360000BFBF0B9BEA1B9B180B93059BB6BF2F467D1B0025002BA7BF4446059BC3EB08040023079A01211A4450469844079200F001FB064602E03D4644460A9E5CB1079B87
:40364000002B08DDA342A8BF2346079AC3EB0808E41AD31A0793002F1DDD0A9BABB18DB131462A46504600F07FFB049A01460646504600F0E8FA04990890504600F03BFAC9
:40368000089B04937A1B06D000E03A460499504600F06AFB04900121504600F0CBFA0B9B05465BB31A460146504600F05DFB1E9B0546012B18DC029B83B9039BC3F3130391
:4036C00073B9039B23F000473F0D3F054FB1079B08F1010801330793012702E0002700E0029F0B9B73B100E000272B6905EB8303186900F052FAC0F1200004E01E9B012BC0
:40370000D9DD0B9F0120079B184410F01F0008D0C0F12003042B02DDC0F11C0002E006D018461C30079B8044034404440793B8F1000F05DD42460499504600F063FB04903C
:40374000079B002B05DD29461A46504600F05AFB0546109B23B32946049800F0A4FB00281EDA00230A220499504600F0DBF90A9B0BF1FF3B0490002B00F05F813146002320
:403780000A22504600F0CEF9B9F1000F06463FDC3BE000BFD04C00000000144000002440059B002B2BDC1E9B022B28DDDDF81490B9F1000F11D129464B460522504600F044
:4037C000B1F901460546049800F06DFB00280CDC03E0354600E000252E461F9B069C6FEA030B09E03546DDF820B0069B069A5C1C312313700BF1010B05960026F7E00A9B11
:40380000DDF8149023B9069CB2E01E9B022BCFDC002C05DD31462246504600F0F3FA06469FB17168504600F031F90446326906F10C01023292000C30FEF738FE0122214649
:40384000504600F0DFFA059000E00596029B069F03F00103079329460498FFF7D7FA3146044600F13008049800F01DFB059A02902946504600F033FBC36802463BB90146A4
:403880000A90049800F00FFB0A9A034600E00123114650460A9300F02EF90A9B53B91E9A42B9079A32B9B8F1390F2AD0029B002B1CDC1DE0029A002A04DB1BD11E9ACAB9E2
:4038C000079ABAB9002B13DD01220499504600F099FA2946049000F0E6FA002803DC07D118F0010F04D0B8F1390F0AD004F131087C1C0CE0002B07F101040BDDB8F1390FA4
:4039000003D139233B70013756E008F1010887F800806CE0069B2746E31A4B4504F8018C3BD000230A220499504600F0FBF8059B04909E424FF00A024FF0000331465046AF
:4039400004D100F0EFF80646059084E700F0EAF8002306460A220599504600F0E3F8059079E700230A220499504600F0DBF8049029460498FFF74AFA069B00F1300804F80A
:40398000018BE31A4B45ECDB069B0596B9F1010FACBF4B4401331F46002601220499504600F030FA2946049000F07DFA002803DC15D118F0010F12D03C4614F8013C621E6C
:4039C000392B09D1069B934204D10BF1010B3123069A02E01446F0E70133137007E03C4614F8013C621E302B01D11446F8E72946504600F080F8059B6BB12EB19E4203D025
:403A00003146504600F077F80599504600F073F801E0DDF820B00499504600F06CF80023209A23700BF101031360229B1BB11C6001E008480AE0069808E0B9F1000F3FF706
:403A4000E2AE1E9B022B7FF7DEAEB1E615B0BDE8F08F00BF904C0000004870476081FF1F024B0146186800F041BB00BF5C81FF1F10B5C9B202449042034605D01C780130C0
:403A80008C42F8D1184610BD002010BD70B5456A04460E463DB91020FFF7E2FF6062456085600560C560656AEB6843B1636ADB6853F8260078B1026843F8262017E021222D
:403AC0000421204600F0B8FA636AE860DB68002BECD1002070BD012101FA06F56A1D9200204600F0A9FA0028F3D04660856000230361C36070BD70B5446A06460D463CB92E
:403B00001020FFF7ADFF7062446084600460C4603DB1736A6A68DB6853F82210296043F8225070BD2DE9F04106460C460D691F4601F1140E0023DEF80000013381B202FBE0
:403B40000171000C0F0C02FB007089B201EB00419D424FEA10474EF8041BECDCD7B1A3689D4212DB616830460131FFF78FFF8046226904F10C01023292000C30FEF796FC0B
:403B800021463046FFF7B7FF444604EB850301355F6125612046BDE8F081030C1B0413B90004102300E0002310F07F4F04BF0002083310F0704F04BF0001043310F0404F38
:403BC00004BF80000233002803DB420003D5581C70471846704720207047036813F007020BD0D90722D49A074BBF5B089B08036003604CBF01200220704799B209B91B0C1E
:403C0000102213F0FF0F04BF1B0A0832190704BF1B090432990704BF9B080232D90702D45B0805D00132036010467047002070472020704710B50C460121FFF727FF0122D1
:403C40004461026110BD2DE9F74F14460A69236988469A42BEBF0B46A0461C46D8F81070D4F81090D8F80830D8F8041007EB09069E42C8BF0131FFF709FF00F114052B463F
:403C800005EB860C0022634502D243F8042BFAE704F1140208F1140102EB890301EB87070093009B0192934257D9B2F800B0BBF1000F23D08946AE464FF0000859F8044B15
:403CC000BEF800A0A3B20BFB03A34FEA144ADEF8004043444FEA14480BFB0A84F24604EB13449BB243EA04434F454FEA14484AF8043B01D9D646E1E7CEF80480019B04324D
:403D0000B3F802A0BAF1000F21D02C4689462B684FF00008B9F800E0B4F802B09BB20AFB0EBEA346F04443EA08434BF8043B59F8043BB4F804E01B0C0AFB03E34F4503EB98
:403D400018434FEA134801D95C46E3E763600435A7E75CF8043D13B9013E002EF9DC066103B0BDE8F08F00002DE9F843154612F0030206460F4607D0214C013A002354F861
:403D80002220FFF7CFFE0746AD1036D0746A3CB91020FFF765FE7062446084600460C460D6F82480D8F808404CB940F271213046FFF740FF04460023C8F8080003604FF0DB
:403DC0000008EB070AD5394622463046FFF73BFF814639463046FFF78EFE4F466D100CD0206808B10446ECE7224621463046FFF72AFF2060C0F80080F4E73846BDE8F8833E
:403E0000984D00002DE9F0470C460746914626694FEA621A56444968A368751CAB4202DA01315B00FAE73846FFF730FE002380461A4600F11401534503DA41F82320013362
:403E4000F9E72AEAEA73206901EB830319F01F0904F1140101EB800E14D0C9F1200C002208689A4600FA09F0024343F8042B51F8042B8E4522FA0CF2F2D8CAF8042042B15B
:403E8000B51C06E0043B51F8042B8E4543F8042FF9D8013D3846C8F810502146FFF72BFE4046BDE8F08703690A6910B59B1A11D192001430143183180A4453F8044D52F859
:403EC000041D8C4202D007D3012010BD9842F4D3002010BD184610BD4FF0FF3010BD2DE9F8430C460746114620461546FFF7DBFF061E08D131463846FFF7C8FD0123036138
:403F00004661BDE8F883BCBF23462C4638466168BABF1D4601260026FFF7B8FD2B69C660266905F1140904F1140101EB860709EB830800F114054FF0000C51F8042B59F8CD
:403F4000044B93B29C44A3B2240CC3EB0C03C4EB124202EB23429BB24FEA224CC84543EA02428E4645F8042BE7D8BE450ED25EF8041B8AB26244131403EB114392B242EAB2
:403F800003424FEA234C45F8042BEEE755F8043D0BB9013EFAE70661BDE8F8832DE9F3411C4601219046089E099DFFF76FFDC4F31302C4F30A5407460CB142F48012019242
:403FC000B8F1000F19D002A840F8088DFFF705FE009B48B1019AC0F1200102FA01F10B43C2407B61019200E07B61019B002B14BF02210121BB61396107E001A8FFF7EDFD41
:40400000019B01217B613961203034B1A4F2334404443460C0F1350009E0A0F2324007EB810330601869FFF7B8FDC0EB41102860384602B0BDE8F08138B502FB01F4214619
:4040400000F054F8054618B122460021FEF739FA284638BD38B50546002944D051F8043C0C1F002BB8BFE41800F017FA1E4A1368114613B96360146030E0A3420DD9226872
:40408000A018834201BF18685B681218226063600C6023E0A24203D813465A68002AF9D118681918A1420BD12168014458188242196013D110685268014419605A600DE06E
:4040C00002D90C232B6009E021686018824201BF106852680918216062605C602846BDE8384000F0DBB938BDC081FF1F70B5CD1C25F0030508350C2D38BF0C25002D0646C6
:4041000001DBA94202D90C23336046E000F0C5F9234B1C681A462146A1B10B685B1B0ED40B2B03D90B60CC18CD501EE08C420BBF63684B681360636018BF0C4615E00C4639
:404140004968E9E7174C23681BB9304600F07AF920602946304600F075F9431C18D0C41C24F00304A0420DD12560304600F096F904F10B00231D20F00700C31A0ED05A4236
:40418000E25070BD211A304600F05CF90130EBD10C233360304600F081F9002070BD00BFC081FF1FBC81FF1F2DE9F0478E6882469E420C46914698463ED88A8912F4906F35
:4041C0003AD02568096902236F1A656905EB450595FBF3F57B1C43449D4238BF1D4653050FD52946FFF782FF064698B13A462169FEF75CF9A38923F4906343F08003A38116
:4042000013E02A4600F04BF9064670B921695046FFF720FF0C23CAF80030A3894FF0FF3043F04003A381BDE8F08726613E44266046466561ED1BA560464528BF4646494651
:404240003246206800F00EF9A36800209B1BA36023681E442660BDE8F08700002DE9F04F9DB003938B8980461C060D4616460DD50B695BB94021FFF739FF2860286118B916
:404280000C23C8F80030CDE040236B610023099320238DF82930DFF89CB130238DF82A3037463C4614F8013B1BB9B7EB060910D003E0252BF9D02746F3E74B463246294666
:4042C0004046FFF771FF013000F0A780099B4B4409933B78002B00F0A08000234FF0FF3204930793059206938DF853301A930126052221784E48FFF7BBFB671C049B38B1F0
:404300004B4A3C46801A06FA00F018430490EFE7D90644BF20228DF853201A0744BF2B228DF8532022782A2A03D0079A00210A200BE0039A111D12680391002A10DA524279
:4043400043F00200079204900BE027463B780134303B092B03D800FB02320121F5E701B107923B782E2B1ED17B782A2B0AD1039B02371A1D1B680392002BB8BF4FF0FF3352
:40438000059310E0002319460593781C0A2407463A780130303A092A03D804FB01210123F5E703B10591032239782248FFF760FB40B14023CBEB000003FA00F0049B013727
:4043C00018430490397806221B487E1C8DF82810FFF74EFB88B1194B33B9039B073323F007030833039314E003AB00932A46144B04A94046FEF7FEF807E003AB00932A46F3
:404400000F4B04A94046FEF7AFFBB0F1FF3F824603D0099B5344099342E7AB895B0601D4099801E04FF0FF301DB0BDE8F08F00BFD04D0000D64D0000DA4D0000F52500004B
:40444000A941000038B5064C0023054608462360FBF79AFF431C02D1236803B12B6038BDA482FF1F884210B501EB020301D8421E0BE09842FBD28118D21AD34204D013F850
:40448000014D01F8014DF8E710BD994204D011F8014B02F8014FF8E710BD70477047F8B5074615460E4621B91146BDE8F840FFF71DBE1AB9FFF7CEFD2846F8BD00F015F817
:4044C00085420ED929463846FFF710FE044650B131462A46FDF7EAFF31463846FFF7BAFD01E03046F8BD2046F8BD51F8040C0028BEBF091851F8043CC018043870470000D2
:4045000070B54FF0FF0C4CF4E06C1CEA11541DBF1CEA135594EA0C0F95EA0C0F00F0DEF82C4481EA030621EA4C5123EA4C5350EA013518BF52EA033541F4801143F480134F
:4045400038D0A0FB02CE4FF00005E1FB02E506F00042E0FB03E54FF00006E1FB03569CF0000F18BF4EF0010EA4F1FF04B6F5007F64F5407404D25FEA4E0E6D4146EB060658
:4045800042EAC62141EA55514FEAC52040EA5E504FEACE2EB4F1FD0C88BFBCF5E06F1ED8BEF1004F08BF5FEA500E50F1000041EB045170BD06F0004646EA010140EA02000C
:4045C00081EA0301B4EB5C04C2BFD4EB0C0541EA045170BD41F480114FF0000E013C00F3AB8014F1360FDEBF002001F0004170BDC4F10004203C35DA0C341BDC04F1140413
:40460000C4F1200500FA05F320FA04F001FA05F240EA020001F0004221F0004110EBD37021FA04F642EB06015EEA430E08BF20EAD37070BDC4F10C04C4F1200500FA04F30C
:4046400020FA05F001FA04F240EA020001F0004110EBD37041F100015EEA430E08BF20EAD37070BDC4F1200500FA05F24EEA020E20FA04F301FA05F243EA020321FA04F03A
:4046800001F0004121FA04F220EA020000EBD3705EEA430E08BF20EAD37070BD94F0000F0FD101F00046400041EB010111F4801F08BF013CF7D041EA060195F0000F18BF7F
:4046C000704703F00046520043EB030313F4801F08BF013DF7D043EA0603704794EA0C0F0CEA135518BF95EA0C0F0CD050EA410618BF52EA4306D1D181EA030101F0004181
:404700004FF0000070BD50EA410606BF1046194652EA430619D094EA0C0F02D150EA013613D195EA0C0F05D152EA03361CBF104619460AD181EA030101F0004141F0FE4182
:4047400041F470014FF0000070BD41F0FE4141F4780170BD70B54FF0FF0C4CF4E06C1CEA11541DBF1CEA135594EA0C0F95EA0C0F00F0A7F8A4EB050481EA030E52EA0335E2
:404780004FEA013100F088804FEA03334FF0805545EA131343EA12634FEA022245EA111545EA10654FEA00260EF000419D4208BF964244F1FD0404F5407402D25B084FEA57
:4047C0003202B61A65EB03055B084FEA32024FF480104FF4002CB6EB020E75EB030E22BFB61A754640EA0C005B084FEA3202B6EB020E75EB030E22BFB61A754640EA5C00A3
:404800005B084FEA3202B6EB020E75EB030E22BFB61A754640EA9C005B084FEA3202B6EB020E75EB030E22BFB61A754640EADC0055EA060E18D04FEA051545EA16754FEA6F
:4048400006164FEAC30343EA52734FEAC2025FEA1C1CC0D111F4801F0BD141EA00014FF000004FF0004CB6E711F4801F04BF01430020B4F1FD0C88BFBCF5E06F3FF6AFAEB7
:40488000B5EB030C04BFB6EB020C5FEA500C50F1000041EB045170BD0EF0004E4EEA113114EB5C04C2BFD4EB0C0541EA045170BD41F480114FF0000E013C90E645EA060E17
:4048C0008DE60CEA135594EA0C0F08BF95EA0C0F3FF43BAF94EA0C0F0AD150EA01347FF434AF95EA0C0F7FF425AF104619462CE795EA0C0F06D152EA03353FF4FDAE1046D5
:40490000194622E750EA410618BF52EA43067FF4C5AE50EA41047FF40DAF52EA43057FF4EBAE12E74FF0FF3C06E000BF4FF0010C02E000BF4FF0010C4DF804CD4FEA410C21
:404940007FEA6C5C4FEA430C18BF7FEA6C5C1BD001B050EA410C0CBF52EA430C91EA030F02BF90EA020F0020704710F1000F91EA030F58BF994208BF90422CBFD8176FEAF2
:40498000E37040F0010070474FEA410C7FEA6C5C02D150EA013C07D14FEA430C7FEA6C5CD6D152EA033CD3D05DF8040B704700BF8446104662468C461946634600E000BF4A
:4049C00001B5FFF7B7FF002848BF10F1000F01BD4DF808EDFFF7F4FF0CBF012000205DF808FB00BF4DF808EDFFF7EAFF34BF012000205DF808FB00BF4DF808EDFFF7E0FF9F
:404A000094BF012000205DF808FB00BF4DF808EDFFF7CEFF94BF012000205DF808FB00BF4DF808EDFFF7C4FF34BF012000205DF808FB00BF4FEA410C7FEA6C5C02D150EA21
:404A4000013C0AD14FEA430C7FEA6C5C02D152EA033C02D14FF0000070474FF0010070474FEA410212F5001215D211D56FF47873B3EB625212D94FEAC12343F0004343EAAA
:404A8000505311F0004F23FA02F018BF404270474FF00000704750EA013005D111F0004008BF6FF0004070474FF00000704700BF000000000000000041444320636F756EFD
:404AC00074733A2025642C20566F6C746167653A20252E326620560D0A000000005100401000205100405000C0510040100000000140001000140140000800400140000AC0
:404B0000004C01400002005001402000303132333435363738394142434445460000000001000000284B0000010000006C4C0000000000000000000001000000404B0000DA
:404B400001000000284C0000030000006C4B00000000000000000000000000000000000000000000684B0000020A000000008103080002000100820240000A0001000302E4
:404B800040000A0002030000040309042C0343007900700072006500730073002000530065006D00690063006F006E0064007500630074006F0072001003550053004200FE
:404BC00055004100520054003803430044004300200043006F006D006D0075006E00690063006100740069006F006E00200049006E0074006500720066006100630065004D
:404C0000260343004400430020004400610074006100200049006E0074006500720066006100630065000000090243000201018032090400000102020103052400100104DE
:404C4000240202052406000105240100010705810308000A09040100020A0000040705820240000007050302400000001201000202000008B40432F2010003048001430009
:404C8000494E4600696E66004E414E006E616E00300030313233343536373839414243444546003031323334353637383961626364656600496E66696E697479004E614E45
:404CC00000504F534958002E0000000000000000000000000000F03F000000000000244000000000000059400000000000408F40000000000088C34000000000006AF8408B
:404D00000000000080842E4100000000D01263410000000084D797410000000065CDCD41000000205FA00242000000E876483742000000A2941A6D42000040E59C30A242B1
:404D40000000901EC4BCD64200003426F56B0C430080E03779C3414300A0D8855734764300C84E676DC1AB43003D9160E458E143408CB5781DAF154450EFE2D6E41A4B4483
:404D800092D54D06CFF08044F64AE1C7022DB544B49DD9794378EA4405000000190000007D000000000000000080E03779C34143176E05B5B5B89346F5F93FE9034F384DB6
:404DC000321D30F94877825A3CBF737FDD4F1575232D302B2000686C4C0065666745464700000000F8B500BFF8BC08BC9E4670474D00000005040000F8B500BFF8BC08BC55
:404E00009E46704729000000184E0000C880FF1FD00000001001000000000000A882FF1F0000C05D80BB000030000000006CDC0200C2010000000800C20100000008000051
:404E4000A1200000000002000000000000000000000000000000000000000000000000000000000000000000000000007E4C000000000000000000000000000000000000A5
:404E80000000000000000000000000000000000000000000000000000000000000000000000000000000000000000000FC80FF1FC74C0000D54D0000D54D0000D54D0000DF
:404EC000D54D0000D54D0000D54D0000D54D0000D54D0000D54D0000FFFFFFFFFFFFFFFFFFFFFFFFFFFF0000000000000000000000000000000000000000000000000000F4
:404F00000000000000000000000000000000000000000000000000000000000000000000000000000000000000000000000000000000000000000000000000000000000071
:404F40000000000000000000000000000000000000000000000000000000000000000000000000000000000000000000000000000000000000000000000000000000000031
:404F800000000000000000000000000000000000000000000000000000000000000000000000000000000000000000000000000000000000000000000000000000000000F1
:404FC00000000000000000000000000000000000000000000000000000000000000000000000000000000000000000000000000000000000000000000000000000000000B1
:020000040003F7
:0200000480007A
:4000000001450040015200400101014001030140010D0140010F0140011501400117014001190140011B0140074001400541014002420140024301400144014002450140EF
:4000400002460140064701400348014002490140034C0140014D0140015101407E027C40E204E602E602E204EE08EE02EE02EE0830023320340236408002CCF0E220840204
:400080009C02A640A720E640A640A720A640A72082408480964096409C8008800B400E4096409C80C20EA720AE40EE40AF20EE101F80AF40C601AF8000AB000040000000E5
:4000C00000000000C0000000000B0B00000040001D0018010000000000000000000000000000000000000000000000000000000000000000000000000000000000000000B4
:4001000000000000000000000000000000000000000000000000000000000000000000000000000000000000000000000000000000000000000000000000000000000000BF
:40014000000000000000000000000000000000000000000000000000000000000000000000000000000000000000000000000000000000000000000000000000000000007F
:40018000000000000000000000000000000000000000000000000000000000000000000000000000000000000000000000000000000000000000000000000000000000003F
:4001C00000000000000000000000000000000000000000000000000000000000000000000000000000000000000000000000000000000000000000000000000000000000FF
:0200000490006A
:0400000000004005B7
:0200000490105A
:04000000BC90ACAF55
:0200000490303A
:0200000031F8D5
:0200000490402A
:4000000000000000000000000000000000000000000000000000000000000000000000000000000000000000000000000000000000000000000000000000000000000000C0
:400040000000000000000000000000000000000000000000000000000000000000000000000000000000000000000000000000000000000000000000000000000000000080
:400080000000000000000000000000000000000000000000000000000000000000000000000000000000000000000000000000000000000000000000000000000000000040
:4000C0000000000000000000000000000000000000000000000000000000000000000000000000000000000000000000000000000000000000000000000000000000000000
:0200000490501A
:0C00000000012E16106900012E34426130
:00000001FF